:10000000AA010100000000000000A026000000007E
:10001000457143DD48C3495A5DEE43DA4925449BA7
:10002000402048DC40244845484A4850486A457CBE
:1000300063D346CF48104828A9CE80A5D2D2CFD2CC
:1000400007B2C5C1C4D9808A0AA2D2C5C1CBD0CF5C
:10005000C9CED4B4D2D980A1C7C1C9CE8A80B7C114
:10006000D2CEC9CEC710AED5CDC5D2C9C380AFD60A
:10007000C5D2C6CCCFD70CB3D9CED4C1D880A5D2E7
:10008000D2CFD218A9CCCCC5C7C1CC80A1C6D4C50B
:10009000D280B3D5C2D0D2CFC7D2C1CD10B5CECDCC
:1000A000C1D4C3C8C5C480B1D5CFD4C5D30DAEC1EA
:1000B000CDC580B4CFCF80ACCFCEC716B3D4D2C914
:1000C000CEC78DAED5CDC2C5D280ADC9D3CDC1D43A
:1000D000C3C811AFD0D4C9CFCE80A2C1D3C580A52B
:1000E000D2D2CFD214A9CDD0D2CFD0C5D2CCD98044
:1000F000B5D3C5C480AEC1CDC516B5CED2C5C3CFAC
:10010000C7CEC9DAC5C480A3C8C1D2C1C3D4C5D2C1
:100110000BA9CDC1C7C580A5D2D2CFD20BADC5CD5D
:10012000CFD2D980A6D5CCCC0EB3D4C1C3CB80AFAF
:10013000D6C5D2C6CCCFD710AEA5B8B480B7C9D477
:10014000C8CFD5D480A6AFB210A6AFB28DAEA5B839
:10015000B480AEC5D3D4C9CEC715ADD5D3D480A293
:10016000C580A9CE80B3D5C2D0D2CFC7D2C1CD1958
:10017000B2C5C3D5D2D3C9D6C580B3D5C2D0D2CF2C
:10018000C7D2C1CD80A3C1CCCC0EADC9D3D3C9CE0B
:10019000C780B3B5A2A5AEA414B2A5B4B5B2AE8063
:1001A000B7C9D4C8CFD5D480A7AFB3B5A210B3D444
:1001B000D2C9CEC780B4D2D5CEC3C1D4C5C40DA2D6
:1001C000C1C480B3D5C2D3C3D2C9D0D40EACC9CEBA
:1001D000C580AECFD480A6CFD5CEC40FA2C1C48077
:1001E000ACC9CEC580AED5CDC2C5D20EA3C1CE8717
:1001F000D480A3CFCED4C9CED5C51AA3CFCDCDC17F
:10020000CEC480A9CCCCC5C7C1CC80C9CE80B0D269
:10021000CFC7D2C1CD17AFCECCD980ACC5C7C1CC6A
:1002200080C9CE80C180B0D2CFC7D2C1CD0CA2C10F
:10023000C480A1D2C7D5CDC5CED412AECF80B0D2A6
:10024000CFC7D2C1CD80B0D2C5D3C5CED409A2C14B
:10025000C480B6C1CCD5C517A9D1C3C3D2D2C5C33A
:10026000D480A1D2C7D5CDC5CED480ACC9D3D40B50
:10027000A9CED0D5D480A5D2D2CFD20AA4C1D4C120
:1002800080A5D2D2CFD214B0D2CFD4C5C3D4C9CFD7
:10029000CE80B6C9CFCCC1D4C9CFCE0AA6C9CCC5F1
:1002A00080A5D2D2CFD209A98FAF80A5D2D2CFD28A
:1002B00014B3D5C2D0D2CFC7D2C1CD80AECFD480F7
:1002C000A6CFD5CEC40DACC9CEC580B4CFCF80AC3F
:1002D000CFCEC7A2D9D4C5D380A6D2C5C5A2D9D402
:1002E000C5D380CFC680B3D4C1C3CB80A6D2C5C589
:1002F000A2D9D4C5D380CFC680B0D2CFC7D2C1CD0A
:10030000B3D0C1C3C580A6D2C5C5B5A4A680B2C5A9
:10031000C6D380A9D4D3C5CCC6A3C1CCCCC5C48018
:10032000A6D2CFCD16B3D0C5C5C3C880B3D4D2C969
:10033000CEC780B4CFCF80ACCFCEC700007F6011D6
:100340005258422056455253494F4E203230313296
:10035000200944534B312E4C4F4144008100000092
:10036000000081000000000000000000E00020000C
:10037000060086A37035004DA371A370BEA3BB0118
:100380008674310002380032B2381FA338005BBED9
:10039000A371310563A543A50032B2381FA338000D
:1003A0005BBEA3710086A39EBE738806691786454F
:1003B00087460680128634BF6E0958BD246EBDA3E1
:1003C000886E0668C306A0188EA37163D343D0005D
:1003D00006648E066A84000668C30668DC057E49EA
:1003E000BE7405038674BE7388BF2002E2868089CE
:1003F0008644DA4501641EA1140ED214006405B2CD
:1004000045FE05641ED530326412BD4A140F7E03CA
:10041000651D0F83BD5E14066FBA912044200F83C3
:10042000BEA2E19E066A7606D0AF8622BF0A0820E9
:100430000F7F008A234445497C4990499449864965
:1004400080499A49A48F4A6462DA4501445BD675B3
:100450000D645BD64201445B05D0000666CF63E9BC
:1004600043DAD6420163E9D6A820EB65C9C6A820C5
:10047000087759BF2C08210F798AA82043A5452069
:1004800045BE45BA456045B7462545AF45C631002E
:100490000BA8206351BF2C08205A97D642C744BFEF
:1004A000BD582C0F79BC57428656A12C560F7906A1
:1004B0008024497CBE42C7BD2C5806802644DAD62B
:1004C00042C944D50F79BC4A420F79BC4B420F79DF
:1004D00006802464EA068024497CD5303264EFBD6E
:1004E000A37232A7A37200034502D5303244F90F3C
:1004F000838644066A821D43DD0F7E03498CBDA3BB
:10050000722E57740680129244BC8089808587A31E
:100510008687A38A0668DCBE7388057E5905D00DE0
:10052000066845497A8FA386655C0F83BD2EA38636
:10053000BD2CA382BD46A384BD48A396B445A39811
:10054000C56EA388454A0F784540BE44FFBC8089EC
:10055000808587A386BFA38809580F81066A8419FE
:10056000DA458049A0066571B64501BF2002E24424
:1005700005BF140064BF0E000ABE082C9320066855
:100580004565AE06686A8E0C658DBD144A06684ADC
:10059000C5202A65AED442085A0E06684565AE06E7
:1005A000686A8E0C65A9BD0E4A06684A56F900D5E0
:1005B000303264EF0580140580160680120BD530AA
:1005C0003264EF0580180580280569AA497C0F7000
:1005D000BD5E1AA55E6EA75E003F0A65DF875E0FEF
:1005E00083BF2002E4066FBA8E808445F731000A8B
:1005F000E0012062D34621310013E0012062DD0FCB
:1006000083BF2002E4BD5E8086A75EA03F066FBA6E
:10061000310010E0012062F00F8331000AA2E6638E
:10062000000F830000D5303264EF0676EBBD4A66DA
:10063000A54A64E74A0002A94A0E8F4A4990A114CC
:100640004C0C6990C6147F6990BC80898085866057
:10065000067734BD00708E8089665FBD008084950A
:100660002C0F79D642C7666DD642C846770F79BC43
:100670006142A12C6046AAD642C946AA06802C2C0B
:10068000BD5258BD5E14BD5C6406802E5CD55258C8
:1006900066A2A55E0EA35C0004C55C66468946A8FA
:1006A0007FFF0668282C5E02952C8780D6C92C0017
:1006B0004661BD4A64BD5C140668284A5C02A55CBC
:1006C0000EA34A0004C54A6646B88680895752DAA6
:1006D000458049A00680120668DC8602BC0342D62B
:1006E00042014730DA450166F0B245FED400000110
:1006F000D5303266EC0F7E0346EC0F87BD062E9197
:1007000006972EBD002E9300A52E308F2E6714BDA8
:100710005C2E0F88A33000048E80844724C530707F
:1007200063D7472E8F3063D7C530808463D748DCCA
:10073000BD044ABD0632BD2E32D530326788912EB7
:10074000A72E00040668102EB2507FD54A5067ECE1
:10075000BF2A000409475ED52E30678C4740BF5C36
:100760000004A15C2EA55C30BD16300668A3A13044
:10077000028E8084477E345CB030B0164783BD0063
:10078000300F89BD06324795BF2A00030668A3A132
:100790003002BD2E309106A506020668282E0404FC
:1007A000BD5C32A55C30915CBD16309102A5300273
:1007B000A532028E808447C0345CB030B01647C585
:1007C000BD00300F89930293060668280603019145
:1007D000068E808447DE3402B006A82047EABF4C6C
:1007E0000820BD5006BD4E020F8A48DC952E0668D3
:1007F000102E972E935006681050BC2B50862A83DB
:100800002A0668A3A1302A0F87972EBD0632479586
:10081000884EBD4C904E8E80846823BF4E00020FE0
:10082000854827BD50B04C00884CBD4C904C885139
:100830008650884F864E8E8084683E0F8600344EE8
:10084000B04C90510006685066ECD64220684500D6
:10085000C5202A66ECBC42B020D6427F6864A6421E
:1008600060912000A32000044850874A860CA642CD
:1008700030CA420A6891AB4A000A8F4A489DBC4B75
:1008800042A14A4CD34A0000489D900C066850484B
:100890006E8E0C68998F4A689DA24230000F838645
:1008A000444990A12A02A5302A8E808468B5CB30B5
:1008B000A04048BB00CB300A9868C2A1302A066A23
:1008C000840B008680890F8EBD80868084BD307049
:1008D0008E808468D9BD308084BD3230BD4030D533
:1008E000407068E693408E808468FCBD808630D579
:1008F0008086808468F9938086BD4070873E873A01
:10090000BD1840BD1A18864387A386BF240958BD69
:100910006E24BDA3886E000780BF80C0356731009C
:1009200010A3F0635CBF4A0400BE4C5F067DEE4935
:1009300039BF2002E4066FBA00040486A80035001F
:100940000EA801A800BEA80FF0350010A810A80F2F
:1009500006695A39000601636C0086A78035006F6E
:10096000A781A780867ABEA370D0BFA300C00087EE
:10097000A30235006CA304A300008644066A840326
:100980000F83066A84058644066A8406066A84160E
:10099000066A84178644066A84180F83066A841AD6
:1009A000066A84278644066A84288E4449B88EA83D
:1009B00021514B0669C143DD06715A0669C1060023
:1009C000120665CE8E80847E933500064A8F9D0286
:1009D000D74EAA555E93BD5E4CA55E4A066931317D
:1009E0000011E001207E6A066618057E9300E4BDD2
:1009F0005E4CA55E4A066A7C310011E001206A0265
:100A00004618A2D9D4C5D380CFC680A1D3D3C5CD33
:100A1000C2CCD9066D4E1B00000000000000000093
:100A200000000000000000000000000000000000C6
:100A300000000000000000000000000000000000B6
:100A400000000000000000000000000000000000A6
:100A50000000000000000000000000000000000096
:100A60000000000000000000000000000000000086
:100A70004FEE4A724E7C4A8E515A4A7A4FBA52FD14
:100A800053434CFD4D4E4A984AA14A954A8CBF5E4D
:100A9000057DBD2A20BE63FF86A374BE6001BD61D3
:100AA0002086008664BE017EC0B061018679067D25
:100AB000576ACC9000D675FF6AC5CA00FE4AC5A623
:100AC000001E056ACEC679104AAE4AA88600D60135
:100AD0007E6AD7C0B06101057A386BD0D675024AFC
:100AE000F4B245FE8E446D4BDA45404AF4BDA38214
:100AF0001E05A00ED675FF4B2A8E444AA8B245FEAD
:100B0000BF2003020F83A7200020D520A38C4B0415
:100B1000BD2AA38EBD4A2AA54A206B22344AB020A2
:100B2000B020BE63FFBD61204AA1D675086CE7D630
:100B300075096CE3D675044B3CBE6401D675034B56
:100B40009486A3748660D52A616B8ED6B02A7F4BBB
:100B500053932ABD5C2AA55C61345CB061E00161FD
:100B6000BD5C61B25DFCB65D1DC95C2A6B7AC0E0FC
:100B7000045CB05CA35C00204B69932AD6B02A7F4A
:100B80004B86A72A0004D6B02A806AA3912ABEB059
:100B90002A804AA3D675074BB386A374D6B02A7FA2
:100BA0006BA6BEB02A80932AC92A206B9C912A8604
:100BB000604A9ED6750D6BC2D6750B6BC2D6750A90
:100BC0004AA8D52A5E4BCFD6B02A806BCF912A0097
:100BD0008E634C3ABD5CA3B0BC5CB05CDA5C046B69
:100BE000F0C6755A6C1ACA75416C3AD675206C3AC3
:100BF000DA5C016C0BD675456C3AD6752E6C3AD61C
:100C0000752B6C3AD6752D6C3A4C10DA5C026C1A66
:100C1000CA75304C1ACA753A4C3ABD5CA3B0BC5088
:100C2000A3B34C2AD475B05C6C3A915C92504C24BE
:100C30008E80CE4C300600364AA88E646C91D52A40
:100C40005E6C68D6B02A7F4C68D72A02FE4C640FCF
:100C500083A7200020A72A001CA75E0020A7610010
:100C600020056C68A32A0004BD5C2AC55C614C8A1F
:100C7000935CBCE0015CB05CD6B05C7F4C88A75C48
:100C80000004BCE0055CB05C4C6BC92A5E6C9191C1
:100C90002AA27560BCB061758660D5615E4CAD8E70
:100CA000A3746CA7060034BEA374FF4AA89161D652
:100CB000B0617F4CB9A3610004C5612A4CC1BD2A53
:100CC00061CB2A02FE4AA80F83A72A001C8E646CFF
:100CD000D5A72A0004A7200020A75E0020A7610056
:100CE000204AA886644C9A86A374C561204CFB9365
:100CF00061D6B0617F4CFBA76100044AA3872286BE
:100D0000768877E3760002A376CD7733000454002B
:100D100000768E446D1BDA45024D350F8331000994
:100D2000A2E2605C0F83BF2002E406CE1F6D320694
:100D30006E1BBE7F038E444D3C05CF68DA45044DE3
:100D40004405CF6806767FBD6EA388056012C10496
:100D5000A39E8F046D7435001EA3C04ABD5604A324
:100D600056000DBEE00404010600100835001E4ABE
:100D7000A3C08704C104A39E8722A5140ED73E08F2
:100D8000204D87BD3EA82286768877E3760002A3B1
:100D900076CD7733000454000076BE738A8E574DAB
:100DA000AF066E0ED75460404DAD0680124D448E96
:100DB000446DB88FA38A4DBF06CE1F6D444DA1066A
:100DC000767FBD4A56BE4C69D75462A64DD6BC4DFF
:100DD000E00204B64B80BD502EBD4E1EBD5C6EA31E
:100DE0005C0018C51A5C6DFD066E0EBF54611C8652
:100DF00044066E0E310008A2D060384D470F778749
:100E00002EC12EA38A06802C2EBD2C580F81066081
:100E10001C0F83BEA2E28ABF2002E4867433000165
:100E20005D000054865C325CB020000154A1205C5F
:100E3000D75462A64E4D9120BC5FE00404865E0646
:100E40006FBABC5FE00504E65F05066FBAD7546071
:100E5000406E790600368E446E79C72002F64E66E3
:100E60000F83BF2002E3BFE00120C9CEA32000040E
:100E7000BC764206A00ABC42760F8300DA45806E3B
:100E800085066D4E2706801ABD5EB02EB25E7F06C7
:100E90006FA9BD20089120BD2CE0022EBF4C002080
:100EA0000F798E426FA88E4D6EB3C04D42066FD241
:100EB000C04D42864DD642826EBFD642B54EC4D694
:100EC0004AB56EE4CA42B34ECECA42BA4EF0C642EA
:100ED000BD4ED8CA42C84EF0BE4D208E4C6EF0D6E4
:100EE00054206EF0BC4C42BE4220066FD2BC424C35
:100EF000C04C4DDA42804F0A066FD20F798E426F96
:100F0000A8DA42806EF8864A4EB3D642C86F17D62A
:100F100042C74F41066FCF0F79BC4A428E4A6F35A8
:100F20000F798E4C4F2ED642224F2E066FD2066F6F
:100F3000D2924A4F1C8E4C4F87066FCFBE4C204F2B
:100F400087D642C94F550F79BC5E420F79BC5F42CC
:100F5000066FA94F87BF4ACB000F840033000142C0
:100F6000000052066FD29152924F4F5CD64A836F67
:100F700085D64A9A6F85CA4AB34E9CD64AED6E9C76
:100F8000D64AFD4F87864C864D4EA08661BE676768
:100F9000875C9267AF5C000AA25F30BC90675FBD60
:100FA0005E5C90618F5E4F9000066F8BBC429067D5
:100FB000066FD2906792614FAC00066F8BBCB02079
:100FC0009067A2B020609120906792614FBD00BEF3
:100FD0004222C406074FDE06801AA7200020BCB0BC
:100FE0000817A0B0084291089006BC544200BEA366
:100FF000B7FF870ABF06000A87168E44500BBF2C26
:1010000008200F790F8306704B501306701AB245F3
:10101000908748BD6EA38805A004BD2E32A32E0084
:1010200003873E873A8E80845031BD4030934050D4
:101030003BBD808630938086BD40708643BD18409E
:10104000BD1A18BD123095120F8F000F8F02516A12
:1010500050AD506E516B507D51C252D552D5513961
:10106000514B5667566B5673515656635653DA16A4
:101070004051560672FDD642B3707350A6067142B7
:10108000067640DA1602565B06714FF106714FC8BC
:1010900006714F018643A6423070A19242565B9082
:1010A00043B616020F7906715A713F5156067142C6
:1010B000B616840672FDDAB03E077133B61680B6F6
:1010C0004508067300B245F706714FB606714FBE6C
:1010D00035001DA820B03EBD00A8248E808470EB92
:1010E000A5003EA3000820BDA82400BD40E0023EAC
:1010F000BF3E0820934006715A712DCE42007111F7
:10110000D642C8710AD642C7510D0676480F7950AB
:10111000F6B61680067305D73E082070F6BDE002CD
:101120003EA822BDA8223EBF3E082050F6BD3EA8E4
:1011300022513F06714FBE513FB616800673050F10
:101140008F01DA164051568E44516A066D4E1B8847
:101150004AD4424A7640066D4E03DA42807168CA2C
:1011600042847168D40000018E42010F7906714FEC
:10117000C8C6420F7657BD002CBE5B4ABC5942BC64
:101180005A420F79BC905B42905B925A5182C10ADD
:101190003E0F7DC13E0A71BE8E808971AE0F77BD54
:1011A000006ECE590851AE3500084A520F77864A74
:1011B000BC4B59BD4C0ABD4E000F77BD0A6E0F796E
:1011C000513F0671428E17566BDA160151D7DA1667
:1011D000085673BDA3923E873EB61628B216FE0F80
:1011E0007906714FC8C6420F7657BC4B42BD4E2C94
:1011F0008E8084720E864A0F727663A5404ABD586F
:10120000409158BD564ABD542C0F8BBD4E58BF4A15
:10121000000E0F727663864ABC4B42BD4C3A875033
:10122000A12C4A350004522C8756A740000EBD3A27
:1012300040913A35000EB03A4ABDA39A3AA3A39A18
:101240000006BDA39CA39A0F7906715A72CB067152
:101250004FB7B61680067305BF4A00020F72766359
:10126000BD4AA39AA54A3E344AEFFFFE3EB03E97E0
:101270003A97A39CBD00A39ABDEFFFFE003EBD4A76
:101280003E974ABD4CE0044A934CC54C3A72939742
:10129000E0044A8FE0024A72A497E0024ABD4AE0A5
:1012A000024A5283BD4AA39CD54AA39A72B597B00D
:1012B0004A954A52A8973E9740D642B672C40671E4
:1012C0004FB352520F7906715A5156B216DFA3A38B
:1012D0009A0006513F067147DA1608766FD642A883
:1012E00052FB8E17566BDA1601566FDA16405156BE
:1012F000BD00A39ABDB0003EB6160150A4067640CC
:10130000D242005156BE5949BD0C2C930C9059C67F
:1013100059587657BC9059420F79CE4200730DBD93
:101320006C2C936CD6905924532DB61610A6594A9E
:101330009059D642B77382DA16805341DA16047197
:1013400056932CBD0E2C8680B0BE10B0DA450853E3
:10135000720F7D5372912CDA1680765FDA1624565E
:101360005FBC00B04AB20007D4009010565FB216BE
:101370006B003500105C4ABF14000EDA1614749C22
:101380005498BD0E2CBE72AF3500105C4ADA16843C
:1013900053BB0F7906714FC80676BF767B8E4A53D2
:1013A000A6C84B43567B8C4B8C4AC672BD7156D631
:1013B00042B37392D642B674115156BE00010676FE
:1013C00040CE420053CDDA1620567753BED642B6F1
:1013D0007409DA16045156D642B353ECCE000173A9
:1013E000BE8C078C06CE72BD53BE5156DA162056FF
:1013F00077D642C753FB06764853BED642C873F62B
:10140000D642B75407900053BE920053BE8C078C4F
:1014100006BC0072A600AFE600018C00BC1072355D
:1014200000104A5C0F7D542DBD2C0E5357DA162444
:101430005498BC10729272BC4A907CBC4B907C91C8
:101440004A8608BC0943A54A08BD144A057469BC0C
:101450004A907CBC4B907C914AA54A08BD0214A9D5
:10146000024A8F025663BD1404D672AF544FDA1489
:10147000E05663E3140001DA16105480E31400020E
:10148000A3140006864ABC4B9010E24B01BD084AEB
:10149000A1144A0C7663549CBF1400088E808454B7
:1014A000A58E4454C28E6B74C28600BC016BBD4ACB
:1014B000000F727663A54000BD0C40910C3400B063
:1014C0000C5C86518E80847537BC7210BC52907C47
:1014D000DA161454EB8E5254EB9051BD0014BF1425
:1014E0000008BD4A140F72766355228650DA16043E
:1014F0005537BC50528E507537DA16205503DA1620
:1015000010750786505537BD0014BD1408A314008C
:1015100008BD4A140F727663BD4A00A54A08A74A5F
:101520000006BD4C8086A54C4A914CCB4CA0405641
:1015300063BD80864C553EBD4A140F727663864A61
:10154000DA16107548B64A80DA16047550B64A4065
:10155000BC7210BC52907C8E527566B44A52DA1638
:10156000245566B61602BC4B6BBD4C3EBD4E0CA559
:1015700040149140350006B0404ABD3E40DA45086F
:10158000558BDA1608558BBDA3763EA34000068E18
:10159000808475C1D6510155A8BD1400BDB04080EE
:1015A00086DA162055F355BFDA162055F38E50759E
:1015B000BFBD1400BD0008A10040BDB0008086552D
:1015C000C6DA162055F3DA160475D1BDB0406C5654
:1015D00028CE72AF55F3BE72AF9072C8721075F319
:1015E000BCE0014090729072BCB04090729714952C
:1015F0004055D98E8084761ADA1610561AD65101C3
:101600005608BF14000856108E507618A71400060E
:101610000F840386149380865628A714000786B08B
:10162000403414E00140B040BD403E9340B216EB60
:10163000DA1680763DDA1620563DBD2C0E0F790065
:101640000F7906715A7156000F798608BC0942A1BC
:101650002C0800066D4E04066D4E06066D4E0806FB
:101660006D4E09066D4E0B066D4E0D066D4E0E0647
:101670006D4E0F066D4E11066D4E1C066D4E1EBD55
:10168000526EC5522456BEBC58E00252A65866C6D9
:10169000580456980F78567F8A5856A756AD56B7B5
:1016A00056A456B106A014A75200085682A75200AD
:1016B00010A75200105682874E06A01056A700872A
:1016C0004A0F79A64230CA420A76E3AB4A000A8F33
:1016D0004A56E7BC4B42A14A4C0C76E7D24A005628
:1016E000E756C1A2423000D4000001872CBD64300F
:1016F000BD6632066571902C008F2C7700057854FA
:10170000902CD6422C497ABD6814BD6A0E87148786
:101710000EBE082D06657E0677CFBD1468BD0E6A25
:10172000D532667733BD4A66914A06802E4AC51483
:1017300058499000BD2C328EA820774CD530647764
:1017400051BD4A64A74A000406802E4AC91458694C
:101750009000D6A8200663E900C6A8200B651ABF32
:101760002C08210F79BC4AA820A64A098A4A578A20
:10177000596C58B08E4457850407BEA80F10350029
:1017800010A810A80F8644056504BE082D8714878D
:101790000E06657CBD6430BD66320677CFBD68320B
:1017A000BD4A66A74A0003C94A6457CC06802E4A40
:1017B000BD4A58BE42010666CFA3640004BD4A324A
:1017C000A54A68A1644AA1664A05779D0563E6D5E6
:1017D00032307851BD4A32A74A00038F1457E38F45
:1017E0000E784B06802E4AC9581477F7A74A000492
:1017F000C94A3077E3584EBD664AA36600038F0E90
:101800005815BD4C20934CD6B04C807805D6B04CC2
:101810008D7838583EC5140E581DBD0E1406802E06
:101820004AC5580E7831A74A0004C94A30781D5875
:1018300038A34A0004BD644AC56466784E00C6A851
:1018400020097835D51458584E583505697A0569F8
:10185000900564EFC6A8200B784BC6A82009584B0A
:10186000D6422C584B00BD6632BD64308714870EBB
:10187000BE082D06657C0677CF8F0E5880BD64307C
:101880008714912086A8200665758F14784BBD4A71
:1018900032A74A000306802E4AC9581478AFA74AD7
:1018A0000004C94A307895BF588000D44A4A0100E4
:1018B00006786678CCC54A6678C7C5644A78C7900A
:1018C000A82006662D5938D51458784EBD684AA30D
:1018D000680003BD2A66A52A64912A0668A6A1307D
:1018E0002A06662D0680120668DCC53068790FBDB1
:1018F0005C68A55C30915CBD1630BD0030A5002A47
:101900008E8084590D345CB000B016590F0F89BD1C
:101910005C2AC56468793EBD00649300BD06680F0B
:1019200088BD5C64A55C308F5C7938BD0664930625
:10193000BD0006A5002A0F880680120563DABD16D1
:1019400064BD0068A5002A91008E80845956345CDD
:10195000B000B01659580F89BD5C66A55C30915C2B
:10196000BD00649300BD06660F885938067866D5B9
:101970001458784EBF680004BD6A58C54A6679900D
:10198000C5644A7994A34A0003D5664A7990584EB3
:10199000A7680004BD4A66A54A64E74A0002BD661E
:1019A0004A9166A94A0E8F4A584EA1144C0C784EA3
:1019B000C6147F784EC9146A784E956406802C64EC
:1019C000BD4A58934A06802C4ABC4258BC57588698
:1019D00056914A8E808479E3BD544ABF5808200F3F
:1019E0008B59E93456A820B04ABD4A140666CF8602
:1019F0004ABC4B42914AA5644AA16468A5140E935F
:101A00006659BC0563E68664860806657C008E0818
:101A1000584BD6423A5A30932C0F798E42784BC7A6
:101A20001400FF784EBC64158714BE082D05657E32
:101A3000D6422D584B05659AD675935A42BD612002
:101A40004CE7D675845A4FBD612A067A7E4CE3D6A0
:101A500075855A63A7610020C520614AA8A361006B
:101A6000204AA8D675985A77A3610020C92A616ACE
:101A7000A8A76100204AA8CA75206BD04ADCD6B05E
:101A800061805A8893615A7ED6B0617F7A8F00A7B1
:101A90006100045A7E4A86B680C210BD047E0401ED
:101AA000078008FC60FE00FF080F4649524D574171
:101AB000524520434F4E54524F4CFE01FF005F5F92
:101AC000FE04FF06522AFE04FF06672AFE04FF18E2
:101AD000672AFE05FF080D76657273696F6E203DFB
:101AE0002032303132FE06FF06522AFE07FF0D0477
:101AF0005220582042FE09FF0C0663726561746F24
:101B000072FE0BFF080E524943482047494C42459C
:101B10005254534F4EFE0CFF06522AFBD6A371318E
:101B20007B3A8EA3717B3AD6A3713A637203D67562
:101B3000FF5C32BCA824A3715C3908FC60FE0DFF79
:101B4000001F3E3E207072657373203D3D3D3D3D5C
:101B50003D3D3D3D3D3D3D3D20726573756C7420BE
:101B60003C3CFE0FFF0215414E59204B45592020A9
:101B700020203D2044534B232E4C4F4144FE11FF67
:101B80000216454E5445522020202020203D20445E
:101B9000534B232E5554494C31FE13FF0216284354
:101BA0004F4D4D4129202C20203D2044534B232EC6
:101BB0004241544348FE15FF021C53504143452007
:101BC00042415220203D2052584220434F4D4D412A
:101BD0004E44204D4F4445FE17FF021C28504552ED
:101BE000494F4429202E203D20454449544F52203E
:101BF000415353454D424C4552FBD7AF2254994A6D
:101C00007C93BF580800BF7E0F12067D4D7C159354
:101C1000587C395C06D6750D7CA0D6752C7CFDD61B
:101C2000752E7CE9D675305C3231000BA8207E5FC2
:101C3000907586A371BCA8247535015FA1A0A19FF2
:101C400087AF2254BC75A82408FC60FE14FF090D60
:101C5000536561726368696E67202E2E2E2EFE1604
:101C6000FB8600BC4AA820CA4A207C75BE0020A47E
:101C7000004AE60001BC7F00BF4C0821BC00B04C0C
:101C8000A2006008E000FB914C924A5C7CBD7E049F
:101C90000564A0350032A820AF225686A3715C39B6
:101CA00086AF225608FF00FE0F5F20FB864ABF5812
:101CB0000800BE4235BF7E1112067D4D7CC493588C
:101CC0007CF65CB5D6750D7CB5D675207C32D675A4
:101CD0002C7CFDD6752E7CF9D675305CE931000C74
:101CE000AF22567E1B90755CF131000CAF22567E00
:101CF0000FBCAF225A7505E02586425CF6350080A0
:101D0000A1E1A1E0BF580800864ABF7E1312067DFC
:101D10004D7D1993587D2F5D0AD6750D7B3AD6758A
:101D2000207B3AD6752C7D0AD6752E7B3A5D32BE65
:101D30007531BEA8C020350050A8C1A8C03100141C
:101D4000A8C07E27BCA8CD7586A37143A5DA59012A
:101D50005D56C04A7D0301D7A8C209005DC9D6A857
:101D6000C0027D8D067DA3007DD8BC56A8C1E65675
:101D7000058E565DD8BF2002E287A956067DA302D4
:101D80007DC2BC56A8C1E656058E565DC2BD76A979
:101D900056D4A8C5777D7935000175E9007691A9FB
:101DA000565DEA35001EA3C04A8856BCA8C056BE80
:101DB000A8C114BF5608C90600100835001E4AA362
:101DC000C001067DA301067DCD0302630186A8C084
:101DD000350050A8C1A8C000067DCD31000EA2E29A
:101DE0007E3B0F83BE750D060036D4000001BF4E4A
:101DF0009CEABF4A040087B04A330007E0014A006A
:101E0000004EA34A0008A34E0007924C5DF6000A5C
:101E100044534B312E5554494C310D0A57534431DC
:101E20002E5554494C310D0014090050000000009B
:101E30000A44534B312E42415443488A80B5B3A5DE
:101E4000B280A5B2B2AFB280808EA3715E54B245AB
:101E5000F70563E090A37143A586A371056A700935
:101E6000575344312E4C4F414400A2D9D4C5D3809E
:101E7000CFC680A1D3D3C5CDC2CCD9AB80A1ADB3E1
:101E800080A2A1AEABB380CFC68094AB80B0C1C7F7
:101E9000C5D380874A06D0FE06D0F406D0FABC50DF
:101EA0008FBD1CBC518FBD1ED68FBD1E0F5F05BFE1
:101EB00052001FBC8FBD1C53BC8FBD1E53BD548F21
:101EC0005D00BD568F6D00BF8F6D00AAAAD58F6DC6
:101ED000008F5D005F05BD8F5D0054BD8F6D0056A6
:101EE0009152D75201007EF1E35200019352057ED8
:101EF000B3BD8F5D0054BD8F6D0056BC8FBD1C50AF
:101F0000BC8FBD1E518F4A7F0C06D0FCD68FBD1EE4
:101F10000F5F39BD5E52A75E0010066931310012B5
:101F2000E001207E810F83E3520002BD5E5206690C
:101F300031310006E001207E7B46210000000000D8
:101F400000007F503C2D7077727570206C6973743F
:101F5000BE8FDD1E00BD9073907292720000000073
:101F6000BE8FDD0000437200000000000000000092
:101F7000BE8FDD1E009272BF006A460FF0000000A7
:101F80000000000000000000000000000000000051
:101F90000000000000000000000000000000000041
:101FA0000000000000000000000000000000000031
:101FB0000000000000000000000000000000000021
:101FC0000000000000000000000000000000000011
:101FD0000000000000000000000000000000000001
:101FE00000000000000000000000000000000000F1
:101FF00000000000000000000000000000000000E1
:102000004257417C426645F04032419641FC4B3A92
:10201000530841F44DB84BC4506856A551DE496B86
:102020004B9651CA55AD4BCA5002517951A451BC7F
:10203000484106935577D706937177D70F7E00B541
:1020400006965A932C0F79D642B3410D0F79D6429A
:10205000A260EAD6429260F4A642F3CA420961063F
:102060008A4240BE407C40E5408140A840AD40B738
:1020700040C3DA17044106B617044045B6E005042C
:1020800001DA17084106B617080F79D642B3604C3B
:102090000695AD610D06809FBDE00A044A40470FDA
:1020A00074B306935C610600B6E0050402DA17011A
:1020B0004106B617014045B6E005040640ADB6E05E
:1020C0000504100F79D642B360DB0695AD60DB06E0
:1020D000809F8E4A4106BCE008044BDA1710410687
:1020E000B617104047B6E0050408DA17024106B6F5
:1020F00017024045B6E005040440AD8602BC03E08B
:102100000304A14002000680FB066A84030695AD25
:102110004106DAE00504016127DAE00504106125D3
:102120000680FB57D74131DA17104131B6E005047C
:102130001006976B579487E00A048EE0080461202C
:10214000BC03E00804860286E00304BD4A028F3C1B
:102150004157BD3C044169BD0A3C8FB00A6165BD71
:102160000AB00A415ABDB00A04BDE00604040F7269
:1021700077C7A54002A5E00604020F7586170696EC
:102180005A0695AD41068602BC03E00304A1400255
:1021900006975E070F7506935577D706937157D745
:1021A000069390BEE0040401D642B541B80F790F02
:1021B0007E0099BEE00404070695AD410906976BC1
:1021C00041C70693A60F75BD5CE004040693A6BD47
:1021D0000440A7040006BDE004045C57BBBD04B086
:1021E000048FB00441DD069390BEE004040106971D
:1021F0006B0693A6BD043C8F3C41E100874AD64262
:10220000FD421F0693558F4A622706937157D706E2
:10221000939087E00A040694C206975E040F750641
:1022200095AD622706A006D530324233066A821D7C
:10223000056012BD3632A73600030691BC36C54A8A
:1022400058424ED5363077D3A7360004423AA336EB
:10225000000306A0080F750694EF63958E0462C410
:102260000F7E00B542C406973FD642FD42C4069396
:10227000558F4A62A506937157D7DAE005040462C8
:1022800088DAE005040277D7D6E004040242938698
:10229000E00304BEE00404030696F50695AD6395DD
:1022A0000694C262B10695AD6395D642B342BE0FA5
:1022B000798E0463CFDAE005040857D743CF0F7E49
:1022C00000B542C9D642ED63CF069627D642FC63DD
:1022D0002D0F74B50683C56303D64C6562ECBE56FC
:1022E000083500085C4ABE555C06960BBC5C07A42A
:1022F0005C06905CC8515C77D7BCB00851910890DF
:10230000064308D64C65430D06970E432886550FA5
:102310007306960B06970EC807064328BEB0082022
:10232000A0B008179108900606962741090683C5B4
:1023300057D70F79D642B741090F74B60694B8BC87
:102340004C0706961AC4064B434F0696A56328D43D
:10235000064B6328BC034B0F84014328BC03069241
:10236000038602AE020E9002AA020EC40703437750
:1023700090030F8401437A0696A50F790695AD4226
:10238000C98E1763A4DA040863A40696A5BC0609DF
:10239000A606E143A48E1763A1DA040443A1B204A4
:1023A000E70696A58E1743B19206BCE00304060F1C
:1023B00075DA040443BBBC7F06947FDA040263C36E
:1023C0000600340F758E17538CDAE0050408010FF0
:1023D0007E00EDD642C944300F79BC4A420F79BC29
:1023E0004B420F79BD4C2E0F7E03C14C2E445E959F
:1023F0004CBD52340691A44CBD3458BE4CA3068B40
:1024000099645E069304069323BD0C50BD345206B6
:1024100092CD8F50642E8E808444233450B01CB0F3
:1024200066442EBD5650BD5466BD581C0F8B4438B3
:102430000F74B5D64C65445ED642B564480695AD7A
:1024400041098E51639544638E51645EBD5C4EBC00
:102450005E51D6B05C236460915C925E445257C377
:10246000BE42B30F77BD0C50900D0C645E0F71BD72
:10247000141CA11C5086B01CBD4EE0046E3450B03C
:1024800014B04EBD4E14BF4A001C91500F77BD14BE
:10249000E0046ED6B0142364C38EB01464A2911409
:1024A0004493D642B345C30F78BC0C51920CBE0383
:1024B000010697180696A5BD144E0F780F77A51440
:1024C000504478D514E0046E64E99314D6B0142E09
:1024D00044DBD514E0046E64E99314D6B0142D6483
:1024E000E9D6B0142B64E99114D642B345C30F79F1
:1024F000A514E0046E0F74B4A114E0046E87528733
:10250000558657BD0E14D6B0142E6533D6B014239D
:102510006527D6B0142D451BB65502D6B0142B45F1
:1025200027B65502B655040685E5BC5653D6B00EFF
:102530002E454086530685E5BC5753A0535692530B
:10254000D7B00E5E5E4564950ED7B00E5E5E4562F6
:10255000950EB65508D6B00E5E4564910EB6551070
:102560004564970ECA4C646596DA550265709253BD
:10257000DA5508657CCE530A77C34581CE530E7772
:10258000C3B655010F73BC575586553455B01490DA
:1025900057BD140E4493BD540EA55414C451554553
:1025A000B1BE002ABCB014009114D5140E45A44449
:1025B000938F5065BE3450B014B04EA11450BE007D
:1025C0002045AA0F78BC0C15A40C4F65D3BE03019F
:1025D0000697180F780695AD63950F7E00B40695A3
:1025E000AD638141099053910ED6B00E2365E5008D
:1025F00006973FD642FD475A0693558F4A460BBD74
:10260000A3AA2C91A3AA06892D47680688E8DAE0D8
:1026100005040866AD8EE00304461E069765BC2BD4
:10262000E00304862ABD66E00604A1662A0697E355
:102630000F77870CC82BE009046643BC0DB0669188
:1026400066902BD64C654650BD500C0692DE467EF9
:10265000D60D0857D7340C4AB0668F4A667CBE5CEC
:1026600051C6905C6377D7925CD65C4B4661BD5C8B
:102670004A815C925DC65D6277D7467E874CA166D3
:102680000CA02B0D0F7C86E00304D642B346AB0FA3
:10269000790695AD669FC82BE00904661B462DC8D8
:1026A0002BE0090466ABBCE003042B0F7506928A8D
:1026B000BD140ABF0A08208607BEE00404028EE0AB
:1026C000030446E946CCBEEFFFFF0AB306976586D2
:1026D000E00304068827BC2AE009048E2A66E9A2E2
:1026E000B020609120922A46DB068827BC2BE009A7
:1026F00004862AA12AE00604932A86110F7F018FFF
:102700002257CF9011A00711C8071046C6972C0F6B
:102710007906882786E00304D642B34752D40710CF
:102720006752A40710A41107D6B02082473A91201F
:10273000D6B02082472E912047289120D6EFFFFF68
:10274000208C473A92114728A520E00604BCE003FC
:102750000421BC1110BD0A14478606973FBDA3AAE9
:102760002CBDA3BC0606890606928A06893B861103
:102770000F7F01BD0A148F2247BB0F83BE7F0390DA
:1027800011D4101147BBBD1434BF340820BD020E54
:10279000A3020008BD06B00206930CDAB00680471B
:1027A000CF0692EC47B48E1767D48EA3BA67D4BD18
:1027B000341447BF8E1777CFBD3414066A822006C3
:1027C000883ABD2CA3AABD06A3BCBD6E0E47650604
:1027D000932367B406930CD601B367E6921147B40E
:1027E0008E0147B447EA92114790BF340820BD2CB0
:1027F0000A932CBD6E0E0F790695AD68220697E3FD
:102800000F7706930CD64C65680F0692EC68180695
:102810009323BD0C500692DE0F7C06930C0695ADFB
:1028200047F6BD34140F75BC21E003048620A120B7
:10283000E0060400C70802FD48400F83BF0802E21B
:102840000006973FD642FD485C0693558F4A685F65
:102850000688E8DAE005040857D7485F068906BD10
:102860000E6E0697E3D64C6557DF0F778E1748AF8D
:102870008EE00304487B0697654893BC0CE009048E
:10288000BD66E006048E0C6893A6B0666091669201
:102890000C48858666BC67E00304860CBC0DE00925
:1028A00004A50C66A166E0060486E0030448E10680
:1028B000893B870CBD660AD6B02A8048BF932ACDD3
:1028C000202A68DCBC00B020D6007F68D8A6006053
:1028D000BCB00A00910C910A912048BF0F83BE7FC3
:1028E000030692DE0F7C0F7506937157D7DAE00569
:1028F000040257D7069390BEE00404020694C20F68
:102900007E00B5861700BD0A2C930A0695BA692782
:10291000D642B5490BBD2C0A0F790F74B5D64C655C
:1029200057BF06970E4936BD2C0ABE42B5068834FD
:10293000BEB0089F95080F7E00B500068834BD2004
:1029400008BEB008809108CB0802FE4941BFA2FE34
:102950007F7F8E80CE495A060034C16E0E066A769D
:10296000C16E0EBD140ABF0A08200086A3B70694E4
:10297000EF6109BE63FFD642FE49FD0F79D642B72B
:102980004109B60440BF2A000187200F79CA42E8F6
:1029900049AACA42EB69AABE5C01A642E869A2E064
:1029A0005C42B4205C0F790589C40F74B6D64C65BF
:1029B00057BF8E5169C4A02B510C49C0066A8413BD
:1029C0000F779021D642B3698B0F7E00B60694F242
:1029D0006109BD0C2A0F71BD5C1CBCB05C20915C10
:1029E0008E2169F30F783450B05CB04EA15C5092E8
:1029F0002149E0BDA3B01CBDA3B22A8663BD200857
:102A0000BD2A20BD5E08A35E0122C62BFC4A13A38B
:102A10005E00048E046A660F7E00B5DA04026A2343
:102A2000060034DA04046A35DA04084A33BE051CA9
:102A30000695DF4A47DA04086A66BC7F09A07F076B
:102A4000A67FDFBCA3B87FBDA3B408BCA3B607DADA
:102A500004804A58BEB00880910892074A4F9308F4
:102A6000BD2A08BD5E2AD6A3B7016A74BD0E6E06E4
:102A700097E30F77BDA3AC20BDA3AE2ADA040C4ABE
:102A800086BFA2FE7F7FC10E6E066A86C10E6ED51E
:102A90002A206A9E932AD6B02A806A8F912A0F78BC
:102AA0000F77D64C656AB2D5202A4AB2066A8220D0
:102AB0004AFC870CBD1C20D51C2A6AC8D6B01C7FD6
:102AC0006AC4910C911C4AB70692D1D5202A6AEBB0
:102AD000D6B0207F4ADCA32000044ACBBCB01CB097
:102AE00020A6B01C609120911C4ACBD64C656B2A65
:102AF000BE4C6506A0164B2A066A8207DA04086BEC
:102B00000ADA04044B0ABC7FA3B8BD20A3ACBD2ADB
:102B1000A3AEBEA3B701DA04084B20DA04046A7C32
:102B2000BD08A3B4BC07A3B64A4F0F7CDA040C4B14
:102B3000360F83BE7F030F750F790697E30F778EED
:102B40003477D3069304D64C656B6BD601C857BF58
:102B500006932F915006A002BD561CA11C50931C39
:102B600006A012D5A3901C57D34B7306932377D39B
:102B700006A0020F7C069304D601B36B8F8E01571B
:102B8000D397368634D536306B8F933606A008D669
:102B900042B36B380F75BE4C93C12C34C001428ECA
:102BA000444BB38E80846BB3BE8089FF0F798680DF
:102BB000894BB50F79D4424C6BBDD40000C12C3485
:102BC000C0014201068BCA0560120692350F79BD1D
:102BD0000A04A10AE00C04A30A000ABDE00A04707A
:102BE000A5E00A040A91E00A04BDE006040ABEE07A
:102BF00004040506976B4C63BD02E0020AB902E0CB
:102C0000040AD5B00A026C158302D5B00A024D2D14
:102C1000B645804C178645BD32E0020ABD30E0045F
:102C20000ABDA3BCE0060AA30A0008BDA3BE700645
:102C30008D368E80846D32BD0070A500309100BD50
:102C40004E00BF50A040BD0A50BD4C300F8ABDA3FE
:102C5000BC70BDA3BE8084068D36BD808630938057
:102C6000864D328E80846D2D310009E004048D2460
:102C7000BD4A70A74A00FDBD4C4ABDE006044A06A5
:102C8000976B579406975E02D6E009040A4D2DD73C
:102C9000B04AABCD4D2D954ABD30B04A954ABD32B4
:102CA000B04ABD0232B90230954AD5B04A026CBD75
:102CB0008302D5B04A024D2DB645804CBF8645955E
:102CC0004ABD02B04ABDA3BC02A502309102BD08B4
:102CD00002A302A0400A6D2DC50280846D2DBF5055
:102CE000A040BD0A5006975E02D6E00904FE4D2DB5
:102CF000BF4E00FE0F8AA35000FEA70800FE6D160F
:102D000006975E02CB0800FE6CE9D4E00904094D89
:102D10002DBD4E080F8A06975E01BDA3BE808406B6
:102D20008D364C5A001C0000FE0000006006601446
:102D3000579706602200BDA3B404BD02A3BCBD0426
:102D4000A3BEA53202A53002A50A308702A5023033
:102D50009102A13204A13004BD5C02BD000ABD1085
:102D600006BD0604D5A3BE80844D6F0F884D7E87B7
:102D7000A3B6C1A3B680840F88C1A3B68084BD0664
:102D800010BD02A3BCA502A3BE6DB3BD0A30C932FB
:102D90000A4DB3950AD4A3BE80844DAB0691A40A14
:102DA000A558020660360A58024DAFA5B00A029532
:102DB0000A4D8EBD04A3B400DA458057DB06923578
:102DC00086A3B90F798E426E2BD642B34109D7B094
:102DD0002CC8054DF4D7E0022C4D454109D7E0043D
:102DE0002C52474109D6E0062C4541098EE0072CBC
:102DF00041094F76D7B02CC8094109D7E0022C50C1
:102E0000524109D7E0042C4F544109D7E0062C4524
:102E1000434109D7E0082C54454109D6E00A2C4427
:102E200041098EE00B2C410990A3B98E80844E425B
:102E3000BD5230B2B0527FA3520004C552324E335D
:102E40004E6906A020BD028084A502309102BD001B
:102E500070A5000291000A4EB7BF100A98C9001071
:102E60004EB7A710000A068F4ABD0A40930ABDB0AC
:102E70000A70970ABDB00A30970ABDB00A32970AA5
:102E8000BDB00A30B9B00A32D6A3B9014E9183B0B1
:102E90000ABDE006040A930ABDE00A0470A5E00A30
:102EA000040A8E80846EADBD300CBD320806975E7C
:102EB00006066022056012310009E004048D2496A4
:102EC000E00504BD4A70A74A00FDBDE006044ABD06
:102ED000584A06976B5794BFB04AABCD954ABDB0E0
:102EE0004A30954ABDB04A32954ABDB04A30B9B071
:102EF0004A32D6A3B9014EFB83B04A954ABDB04AC7
:102F00008084BEE009040A06975E03BD5430BD0804
:102F10008084A508309108BEE00904FEBF5600FE7B
:102F20000F8B06975E03A35400FEA70800FE6F44B4
:102F3000CB0800FE6F1CBD56080F8BBCE0090409CE
:102F400006975E0306975E014EB1BD0C30BD083298
:102F5000BD5430BD5810BD0A58BD568084A55630AA
:102F600091560F8BBDA3BC8084BDA3BE70068D3669
:102F7000BD4030934000310009E004048FF906970A
:102F800065BD5032A750000386008E80846FB6BDA9
:102F90005450BF580820BF5600040F8BBD54A822C0
:102FA000935491560F8CBC0158BF5808229154BDC0
:102FB00056000F8B4FCDBDA820B050BD4CE0025045
:102FC000934CBC01B04C3400A822E0014CB2A820C4
:102FD0007F9500BCE009040106975E03A75000043A
:102FE000C950306F88BFA820FFFFBEE00904020669
:102FF000975E0306975E014EB100120820A3000001
:103000000060069235DA458057DB0F798E42410920
:10301000310009E004048FF994E005040697650681
:10302000975E02D7A820FFFF77948780D6BC42E046
:1030300009049642BD4AA8208656BC57423456A879
:1030400020A822BDA39E040660328704C104A39E6B
:1030500006975E02D7A820FFFF502AD6E009040297
:10306000579406975E014EB1DA458057DB87148787
:103070000EBE082D067A068F145094BD5432A75404
:1030800000030691BC54BD14588F0E50940691BC99
:1030900030BD0E588F0E50A69320D6B02080709869
:1030A000D6B0208D708DC90E1470AEBD0E14BD4A01
:1030B000140F7E03BD142EBD4A0E0F7E030691BC75
:1030C0002EC5580E50CAA32E0004BD0E2EBD2E14C0
:1030D000932C0F798E4271320681F4BF6E0958BD70
:1030E000246E0F79BF0409688617310009E00404D3
:1030F0009170BF0809750697ED904CBCB008420F5F
:10310000799108924C50FB069765864ABC07E00807
:1031100004BC4B07A14A08BDE00604088E808471F8
:1031200028C54A7077BB512DC54A3077BBBE060112
:103130005138BE7F1F06973F8E808471400691797B
:10314000066A7403514ED67502715F03514B8E802F
:10315000847156BD2E58A72E0004C50E2E51388EF0
:1031600017516D0696A506975E0105601A05601257
:103170000012000000000000600691BC2EBDA820D7
:1031800058BFA822082495540691AA93580691A4E2
:1031900058BC5758BF58082491540F8BBD582EBFA8
:1031A0002E0820008856BD5490568E808471B7BF7B
:1031B0005600020F8C51BBBD58B054008856BD5408
:1031C00090560691AAB3587FFF00BD5C0406921E7C
:1031D000C15C045212BD4AE00A5C0F800F75BD5CF1
:1031E0000406921E57D7BE5E09C0E004045E06972F
:1031F00065C1045CBCE0045C5EBC5EE00C5C31005C
:10320000084A9216DA5E037212DA5E027210834A7C
:103210000F75874A0F754001000000000000D6427C
:10322000B741090F74FF06935C77CBBC6217069316
:1032300071BC176201B24580D642C77242D642C8FD
:1032400041090681F4066022BF04096086B0043596
:103250000009E00104B0040F79A7040004BCE00DEC
:103260000442BD0AE00C048E80895275340AE00ED7
:1032700004B02C5284BD560ABD542CBD5804A3582A
:10328000000E0F8BA12C0A863400BD0A2C8610BDBF
:103290000E6ECA428061090F7A8611D642B752A2D9
:1032A00090118E1172B60695AD6109D642B652B232
:1032B00092110F79529B0F7790100695AD72CC0F3B
:1032C0007E00B30695AD52928E17410900BF4C6542
:1032D00000BD500C0F71BD4E1CBF4A001C00069271
:1032E000CD8E5172EB340CB01CB06600D601C853C1
:1032F0000306930CBD56348600A1340006A012D5F7
:10330000A3903401BC4D80848E4D5314BC01B03465
:10331000864D5320BF560001BD54340F8CBC01585C
:103320009134008750D601C7732FD601C8533E068B
:1033300093088650BC5101BD6634A1345000D601BB
:10334000B3734806934B538C933400C042010695E7
:10335000ADC04201010F7E00FD0F74B5D64C6577FC
:10336000BF86540F128E5457CBDA4A80538C8F4A43
:1033700001BC174B8E4A57CBBD043C8F04738FD4CE
:10338000E0020417738CBD04B004537BD400000129
:103390008617D6E004040353A58EE0030473A50644
:1033A00096F50696A500BD0AE00604930A8608BCB9
:1033B00009E00D04A2090DA10804D53C0473E6BD83
:1033C000023CD5B0020473CEBD02B00253C2BDB000
:1033D00002B0048FB00273E0A1B00208A5B0020AE7
:1033E000BD04B00253F7BD3CB0048F3C73F4A13C64
:1033F00008A53C0ABD043CBD020AA50240BD060862
:103400008F027411BCB008B00A930A930893025457
:1034100000A5080A8F0474318FB004742CA1B00485
:1034200008A1E0060408BD04B0045418A1E0060495
:10343000088F3E74B4D13E0674B4A13E08BD043E6C
:103440008E8084544CD1E00404307451A1E0040413
:1034500008D2B00400749BBE4A07B04AB004BD4C09
:1034600004A34C0006BF500001864E8E4A7483BEF2
:103470004F01A44F43A14EB04CA94E50924A954CD7
:1034800005946B8F50749BBD4AB04C8F4A7495BDA8
:10349000EFFFFD4A4C954C935054838FE002047427
:1034A000B4D1E002040674B4A1E0020408BD04E053
:1034B00002045440A140080006935C54C1BF4A0076
:1034C0000100D642B354EE0F79D642DE538CDAE0D7
:1034D00005040177D70F7906939086E003040F74F3
:1034E000B506935CD24A0057CBBDE00A044A0006F9
:1034F000973FD642EF5518DA040141090F790F7E44
:1035000000EC0780BE7F03DA04045513BE0601BF3A
:103510000802E2B6040154F2D642EE5529DA04025A
:103520004109B604020F7954F2D642F05571DA041B
:103530000441090F790F7E00B70F74B30F7E00B3FB
:103540000694B8BE4C1806961A924BAA4B20BD089A
:103550004B0F74B60F7E00B60694B8BE4C1C069690
:103560001ABC064BA1084A9108B60404B6042054BC
:10357000F2D642EB55A0DA040841090F79D642B7DA
:1035800041090F74FED24A00758F834AB604800643
:10359000935C77CB8E4A57CBBC054BB6040854F2EC
:1035A000D642FE75B9DA040875AD0695DFDA4280B9
:1035B00075B7CA4284538C8E42010695AD738CD682
:1035C00042C775C9D642C855D50F79BC4B42864A09
:1035D000A12C4A55DCD642C955DC952C0F7900DA6E
:1035E000040455FCD6060175FCBC4A06A04A0592A7
:1035F0004AC44A0755FC0696A50696CCA407069031
:1036000007C4070556C8BC070556C8BC0D56860C2E
:103610000692CD340CB01C905500AC4A4C8E4B56E3
:1036200024BC4B4C864A000695AD5631BF9073833F
:1036300095CA42B35659C642B57659BF9073837A3C
:103640000683C55659D642B3564FBF9073835CD696
:1036500042B55659BF90738377000F74B3D64C654B
:1036600057BFBD0250A2030E0F77BD4A020F7277FB
:10367000C70F78A54002BD0440910486B004350010
:103680000DE00104B004BCE0030403BC0251BCE043
:103690000D0451BCE0020417BD0804A308000E8607
:1036A000170F840200BC030790038E1776D30F8494
:1036B00001DA0408538CDA040476CCA3080004CAA7
:1036C000080356C8BF080002BE0601000F83BE06ED
:1036D000015754DAE005041056E2BC030790030FCB
:1036E00084019206BCE009040686E0030406975EA6
:1036F00003860957018617BC07E00804BC09E003EC
:1037000004BC060990068608A108E0060400BC0C6B
:10371000518E0C773EBC0306BC0207A40206900241
:10372000C8020C7730D6030177330696A5571500EB
:10373000BC020CA40C02A006020F840257110086E2
:1037400004BE1760BE0601C67F025751BC067F96B5
:1037500006BE071CBC09068608A30802E1008856BD
:10376000BCE004045606976B579700BEE00C04605B
:1037700035001EA3C04ABD5604A356000DB2E00595
:10378000041F0600100835001E4AA3C07793DAE034
:103790000504E0010680FB310002A3946030D5806F
:1037A0008AA39457A9BE738A00A67304D790738125
:1037B000E957B8066A822300A27304066A842406C5
:1037C0006A8407066A840A066A840B066A841E06EF
:1037D0006A8420066A8421066A8422066A8427068F
:1037E0006A8409CA428061090F7A0F7B00BC4C428F
:1037F000BCE00804640000000000000000000000BD
:10380000205A24F44000AA55203820962038217EE2
:10381000203821E22038234C203824322038246EEE
:1038200020382484203824902038249E203824AA4C
:10383000203824B82038209000000000000000004C
:103840000000000000000000000000000000000078
:1038500000000000000000006520C060200402811C
:103860004000130EC0010202834A8CB016068CB0D1
:1038700016048CB01602C03004500221000810EF6C
:1038800002002500C800832202E083E0046000CE2D
:10389000C81D832210F9C01DC06D000206A020DCE7
:1038A000C0C1060302238300D0D3136109830643FA
:1038B0001612C000165CC0C505C306A02406165328
:1038C00005C306A023CA0204834A02020008DC746E
:1038D000060215FD038006A020F810F5C04113472D
:1038E0000A819060831211430981C1410A35022582
:1038F0000008A1608310045BC24B06431634C0C5A8
:1039000006A023CAC0C106A02406112D06A0211CB2
:1039100006A023CA60040A30A0400459C28B0A5191
:1039200009D1C201D1208343098413030600112366
:10393000058002060001C0C50223000406A023CAB8
:10394000C0C1064305C306A023CA0581604439816E
:10395000C1861611C187060815F50606A184818067
:10396000150A05C3045A02000700046020840200FF
:103970001C00046020840200140004602084C01D28
:10398000C06D000206A020DCC0C106030223830034
:10399000D0D30983160EC0001622020200080204CA
:1039A000834AC0C506A023CACD0105C3064215FA45
:1039B00003800643160FC0001612C0C505C306A03B
:1039C0002406160B05C306A023CAC1010201834ABF
:1039D000046020CA06A020F810F804602166046084
:1039E000216EC81D2038C82D000283E2C82D0004B6
:1039F000204402E083E0C80B2040C020204406A001
:103A000020DCC0C1060302238300D0D30983060350
:103A100013320643164AC2A02038162DC0C505C36E
:103A200006A0240698012058162002060008020469
:103A3000834AC0C506A023CACD0105C3064615FAB0
:103A400006A022DA02250004C105C04606A023E62E
:103A500005C4D050098106A023E6C2E02040C8205A
:103A6000203E830C02E02038038002000700C2E001
:103A700020400460208402001C000460226EC08B81
:103A8000064316F3C0C506A023CAC0C106A024067B
:103A900011020460226AC020203806A0211C6004A4
:103AA0000A10A0C006A023CA045206A0227E020665
:103AB000834ACD83DDA02058DD84CD81C0C11602AC
:103AC00004D61005060306A024060981C581C0207E
:103AD000204406A022DA0460225AC80B203AC80506
:103AE000203CC2E0601E069BC0202044C160203CF8
:103AF000D1900986C820830C203EC806830CC806D6
:103B00008350C2E06012069BC02020440206834A14
:103B10000204001CCD84DDA02058DD84C5A0831CD8
:103B2000C0A0830C1309C116C0C00583D07306A0C2
:103B3000241A0584060215FAC2E06028069BC020FC
:103B40002044C160203CC2E0203A045BC01DC06D2F
:103B5000000206A020DCC0C1060302238300D0D3EC
:103B600009830603130206431623C0001628C02D3E
:103B70000004C0C505C306A0240698012058161DE0
:103B800005C306A023CAC0411307C1810601C0C1F5
:103B900006A0240690501A15DC011309C0C609813D
:103BA000C14106A02406DC010583060515FA038041
:103BB00006A0227EC02D000410E604602166046089
:103BC000216E020013000460208406C3D8038C0217
:103BD00006C3D8038C021000D060880006C1D060F4
:103BE000880006C1045B06C4D8048C0206C40264C3
:103BF0004000D8048C021000D8018C0006C1D80106
:103C00008C0006C1045B06C3D8038C0206C3D8032C
:103C10008C021000D0608800045B06C4D8048C02BB
:103C200006C402644000D8048C021000D8018C0045
:103C3000045BC83E83E202E083E0C80B204EC081F3
:103C4000028100401B0AC0A1601002810004160519
:103C5000C0A20002069224661001069202E02038FB
:103C6000C80B83F6038002000B000460208402E08E
:103C700083E0C80B204E06A0000E02E02038C80BDF
:103C800083F6038006A024CAD82D00028C0003808E
:103C900006A024CAD8318C00060216FC038006A0B8
:103CA00024D0DB6088000002038006A024D0DC6002
:103CB0008800060216FC0380C05DD82D00018C022E
:103CC00002618000D8018C020380020140001001D3
:103CD00004C1C09DD820203D8C02E081D8028C0216
:103CE000C06D0002C0AD0004045B000000000000D5
:103CF00000202020202000205050500000000050C4
:103D000050F850F850502078A07028F020C0C8100B
:103D10002040981840A0A040A89068C040800000B3
:103D20000000081020202010088040202020408023
:103D300020A870D870A820002020F82020000000C3
:103D40000000602040000000F800000000000000BB
:103D500000606000081020408000708898A8C88823
:103D60007020602020202070708808304080F8701B
:103D700088083008887010305090F81010F080805B
:103D8000F0088870708080F0888870F808102040F3
:103D9000404070888870888870708888780888703B
:103DA00000606000606000006060006020400810FB
:103DB00020402010080000F800F80000804020108B
:103DC0002040807088102020002070880868A8A8F3
:103DD00058708888F8888888F04848704848F0709B
:103DE000888080808870F04848484848F0F8808093
:103DF000F08080F8F88080F08080807088808098E3
:103E00008878888888F8888888F82020202020F8FA
:103E1000080808080888708890A0C0A09088808052
:103E200080808080F888D8A8A88888888888C8A8D2
:103E300098888870888888888870F0888888F0805A
:103E40008070888888A89068F08888F0A090887032
:103E5000888070088870F82020202020208888889A
:103E6000888888708888888888502088888888A86A
:103E7000A850888850205088888888885020202022
:103E8000F80810204080F87840404040407800809A
:103E90004020100800F01010101010F02050880082
:103EA000000000000000000000FF181008000000E3
:103EB0000000006010709068004040704848B000FA
:103EC000006090809060001010709090680000601A
:103ED00090E08070003040E0404040000070907002
:103EE0001060008080E090909000200020202070E2
:103EF00000100010109060008090A0C0A0900060A2
:103F000020202020700000D0A8A8A8A80000B04859
:103F1000484848000060909090600000F048487069
:103F200040000078909070100000B0C88080800041
:103F30000070807008F00040E04040502000009089
:103F4000909090680000888888502000008888A899
:103F5000A850000088502050880000484838087059
:103F60000000F8102040F8182020402020182020C1
:103F70002000202020C02020102020C0000040A8C9
:103F80001000000000000000000000000000000021
:103F90000000000000000000000000000000000021
:103FA0000000000000000000000000000000000011
:103FB0000000000000000000000000000000000001
:103FC00000000000000000000000000000000000F1
:103FD00000000000000000000000000000000000E1
:103FE00000000000000000000000000000000000D1
:103FF00000000000000000000000000000000000C1
:104000000F7543FB409C48D3486E488A40A9412B1A
:10401000480A48E549FC4571428D401A4B1A4989C6
:1040200046FC40224024A03005534F554E44AA3E42
:10403000A03A05434C454152AA18A04405434F4CB1
:104040004F52A91DA04E054743484152A8FAA05817
:10405000054843484152AB03A062055643484152CC
:10406000AB26A06B0443484152AB46A073034B45BB
:1040700059BE3AA07D054A4F595354BF60A08806E7
:1040800053435245454EACC9A09407564552534937
:104090004F4EAA1FAE0603455252ACF98E4460AE95
:1040A000BD2EA372952E06A28DBE7F0340B2BF2CFB
:1040B0000820BF26A0BCBF28A1470F768A2340DF77
:1040C000411A40ED48AB40D441DA47174218443812
:1040D00041AA422FC673B06DCA066A820241168E8B
:1040E0004440E906601C0563DD066A84008620BC46
:1040F000217FA32002DFC72002F841020F83BF20E7
:1041000002E2BEB0209C912006A88ABEB0209EA7E5
:104110002002DEBC7F2187220F828E446143BD5284
:104120002E975206A70C03BDA3822CBDA3862EBDDD
:10413000A3886EBDA38446BDA39648BCA39845B290
:10414000A39863066A84014189468B469D46814651
:1041500086418C418F418641A74192437F419541E1
:1041600098419B4248425842654628419E418345BA
:104170001A45BD4555452B449041A441A144F34403
:10418000FF429F05801C05601E05802205800E05EC
:10419000800405800C05800605800805800A0580DE
:1041A0001E0580000580020580300F79D6429C41B3
:1041B000B7B245F905A1CFD6429841C4B245FDB684
:1041C000450441CFD642964DBAB64502B245FB0FE3
:1041D00079066A784DBA87220F750F79D642C9429F
:1041E0000E0F79BC4A420F79BC4B42BD4C32A74CF2
:1041F000000306802E4CD54A586206C54C304DE669
:10420000A74C000441F2954CBDA38A4C4216D642FD
:10421000984DBA87A38A41CF0F79D642984225B2EA
:1042200045BF05A22DD642964DBAB6454041CF8E28
:1042300080894DF6E7590008A52C59932CBD562CC2
:104240000600100A41D14DF63100084AA2500F7500
:1042500040030E0F5C41235A06A26D0A42633500EB
:10426000084A5C0F7506A26D0A425E0F7506AC899E
:10427000C64C636DBE0F770F74B6C64C636DBE0F30
:104280007E00B63500085C4A0F780F0A0031000A3C
:10429000A3A0A29500420323150043023E2A17352E
:1042A00000054AA3A5864F87500F773100085CA30D
:1042B000570F083100085CA3670F060F773100081D
:1042C0005CA3770F080600220F773100085CA36F0C
:1042D0000F08A76E00080F0C350005A3A54A0F773D
:1042E0003500054AA3A0864F87503100085CA357CC
:1042F0000F08A36E00080F77A76E00180F78A36E43
:1043000000203100085CA34F0F080F0B3100085C40
:10431000A35F0F060F0BA76E00100F773100085C2C
:10432000A3770F080600223100085CA36F0F080F67
:104330000C350005A3A04A3100085CA3770F080FD5
:1043400077A36E00080F780F080F080F0B0F754347
:10435000012B5952000000422A08150000000043BA
:10436000020B203000000043063605130000004316
:104370000A0000000000003C0A00000000000006E7
:104380006A7863C00F748306A3ED8F4A63B6BE4A92
:10439000460F773100085CA3770F0806002235002E
:1043A00005A3A04A3100085CA36F0F080F0C35006D
:1043B00005A3A54A0F75BDA3A04ABDA3A54A0F75C5
:1043C000BF4A4201864E06A3D203A506A3D203A08C
:1043D0000F75885288530263BC4C78E64C02026326
:1043E000BC4D78E64D02350005B0524A00D64C650A
:1043F0006DBE0040010000000000008650BD0C5062
:10440000BC5280840F71BF4A001CBD4E1CBF4C655E
:10441000008F0C642B8E524420340CB01CB066000C
:10442000BD560CBD581CBD54660F8B00865244040B
:10443000D64C654DBE0F7700862306A4300F74B8A6
:10444000D64C654DBEBD0C50A10CE0066EC70C00ED
:10445000FF445BBF0C00FF066A8213BD680C0F7738
:104460000F710F783500085C4A0F78BD664EBD0CA1
:1044700050865206A4068F62648EBD641CA16450EF
:10448000A56850648E3468B064B060A150680F7540
:1044900006AC8906A4300F7E0106A9958F4A6DEE01
:1044A0000F770F74B60F7E00B606A995BD5C4A0F54
:1044B00078BD5E4A0F78BD565EC5565064EFA15672
:1044C0005CA556509356D356000044D4BD5C50A50D
:1044D0005C5E915CBD0C5C0F770F710F78BD664E12
:1044E000A1665E9366BD500C865206A4060F7587C2
:1044F0005C44D406A5654DBEBD4A500F800F7506BD
:10450000A56506A995BF0C0001BCA3784BBF660347
:104510007806A42CBF5000010F7506A5654DBE8E10
:10452000516DEABC4BB04E864A44FB06A5656DBE94
:1045300086550F73D6905520453E90559256860C61
:10454000BC0D56340CA3C09055BF6603C006A42C06
:10455000BD500C0F7506A5654DBE8E516DEA06A5C2
:10456000716DEA0F75D642B74DBA0F74FFD64C6520
:1045700001BD664EA16650BD0C50910C9366930C24
:1045800065B9D6B06620657C910C0F770F710F78F6
:10459000BD664E865206A411A10C1C930CBEB00C35
:1045A00020BD561CD6B0562045AE915645A4864C2B
:1045B00086540F10D5560C68F1D400000106AC8962
:1045C00006A4300F7E0106A4300F74B60F7E00B62D
:1045D00006A9958F4A6DEEBD0C4A930C0F783500F5
:1045E000085C4A0F788E516624C4510D46248E63B0
:1045F0006615A14E0CA4510DC851634624BD4A4E08
:10460000BD5C60BC6463D4B05CB04A461C914A9106
:104610005C92644606900DBD4A0C44FB900D92518D
:10462000914E45F8860D461706AC8906A4300F74E6
:10463000B60F7E00B606A995A94AE0066E8F4B66B6
:1046400049066A8213BF4C00FFBD0C4C0F710F78F6
:10465000BD5C508F0C4659875CC10C5CBD664E86B4
:104660005206A406BD505CA55C0C8F5C6684A11C40
:104670000CC50C5C4679BD0C5C340CB01CB06646B5
:1046800067B645100F75B245EF0F75BE5CFF066A41
:104690007846A4932C8E444127066A841B865C06C8
:1046A0006A7866F706A8D3BD5E32A75E0003C95ECE
:1046B0003046F106802E5ED5584A66C2A75E0004D9
:1046C00046AE8E808466DAB2587F8E5C66D1B6586C
:1046D000800660365E580105A6E6B2B05E7F8E5C4D
:1046E00066E6B6B05E80066A7866FA0F7E00B3466C
:1046F000A4066A822646E606A6FC0F75BD52300661
:10470000A70CA3520004C5523246FF0006802E5269
:10471000066036525801008E4447208E80854699A7
:1047200086518722865E864CD642B7473B0F770F6D
:1047300074FF3500085C4A0F789051BC6651BD6427
:104740004A0F773500084A5C0F77BC4CB064BC4D0B
:104750004CB24C07D44C664DF2BD4A2CBE4C70B2E4
:104760004D80A76E0010BD4E3EBD50400F77A36E2A
:104770000008BD2CE006640F79C673A46DCA35002D
:1047800018A3C000B64508BE1680D642BE479C8618
:1047900059066A80972C86E0026E479F066A7E0F54
:1047A00079B245F735001800A3C0BEEFFFFA6E6876
:1047B000BDE0023EA376BD4A3E0F7B350008524A5B
:1047C0000F783500085C4A3500084A520F773500EB
:1047D000084A5CD64C6547E2D74A001C67E2BD4EEA
:1047E000B04A0F790F7C0F7483D64C6547F68EE084
:1047F000036E6DBE47FC8EE0036E4DBE06A80ABD7B
:104800002CE0086E932C0F790F75BD663E350004C1
:104810003EE0046ED2B06600684CBD66E006668F6E
:10482000666833BD56EFFFFD66C9563E683387EFB5
:10483000FFFD66D64C65484AC94A3E684A8F4E68B5
:104840004687EFFFFD4EBF4A001C48568E808468A5
:1048500056A380860008A76E0008000F74B606A352
:10486000ED0F7E0200001EE64B01B64BF0009336C2
:1048700006802C36BD345806802048899736D536B8
:104880003068879336486E8634008E80894897BD9D
:104890005EEFFFFE2E48A5BF560002BD542E975472
:1048A0000F8CBD5E58B25E7F056A7C8A224DBA4D80
:1048B000C64DEE4DE64DBA4DE24DBE4DCA4DEA4DE8
:1048C000DE4DF24DD24DCE4DC24DF24DDA4DF64693
:1048D000994DD6D642C94DBA0F79BC4A420F79BC20
:1048E0004B420F790086540F10BCA3BA54BDA3905D
:1048F000568E5468F9066A82020006ACA906A9DD44
:104900003100084AA3F3BC4B7DA64B60CA4B6449F7
:1049100019C04C4BAE4B64904A0F7C555C0F7E0027
:10492000B78700D642EC4934BE00EC874A0F7906BF
:10493000B0E44952D642FD494906AE0006A989D6DF
:1049400042B34B1A06AE02493C0F7E010F7E0200B5
:104950000010A34A080F0F770F7E0106ACA0BC0E13
:104960004BE20E040F74B606ACA0B40E4B0F78BC2D
:10497000B04A0ED600EC498035000EE0014AB04A3C
:10498000D642B34B1A0F7949210F74B606ACA0BCBE
:10499000E003084B00C64C636DBE8654876C0F1253
:1049A0008E544DEED24A004DEE00BC4B008E0049B5
:1049B000B5864A49BDD2000069BDBE4ABF0F7C0022
:1049C000BC004B06A9DDD642B34DBA0F7906A9DD6E
:1049D000BC74003100084AA3F3038674010F7ADA2D
:1049E000B04AC04DC20F7B0F77008000A000C0000E
:1049F0009FBFDFFF0006D642B74DBA003500084A18
:104A0000B052BD586EA558526A133458EFFFF05299
:104A1000E00852A76E0008000780BE7F034B1E0609
:104A2000A9F606ADAFBF4A07DC0F8050EF420B126C
:104A3000220000000001FF01049FBFDFFF00D780BC
:104A4000CC03796A3E310009A379AA3506AC89D234
:104A50004A006A59834A8780CE0F7E0201109AABC2
:104A60004A0006AF4A00648E4B4A6D904BBCA37B54
:104A70004B31000C00A9EA0F7E0106A3EDD24A00DB
:104A80004ABF3100085CAA2D0F090F7E020303FF05
:104A9000EB4A0004E64A04B5900A4A940A06A85B69
:104AA000B0900B4B900BD642B66ADD0F7E00B3D6AA
:104AB0000A064A770F7E0106A3EDD24A006DEED6B4
:104AC00009FF4DEA834A0F7E02010008924BBC09A0
:104AD0004BB609E006A85BBCA37A4B4AA686108EAB
:104AE00080CE6AEE034ADFD675024ADF4127BC81D9
:104AF0000090109010D6100A4AEEBF4A0379F64A89
:104B0000014B1A06ACD68F4A6B1208E000FB934AA1
:104B10004B0AD642B36B03BC7F020F7E00B6066A17
:104B2000784DBA06001206ACD68F4A6B3F08E000FB
:104B30009EFB934A6B3F8E7E4B2D907F05AB2DD60F
:104B400042B36B264B1706A9F60F79D642EC4B5EA3
:104B50000F7906B0E4BE00ECBF4A00204B670F7E21
:104B6000010F7E021E009FE34A0003A34A0300BD1B
:104B7000044A0F74B6D64C654DBE350004104EC7BE
:104B80001200404B89BF120040CB0407FF6C1FBED0
:104B90004A3035000F4B4A8F126BB8CB1200106BA6
:104BA000AA34124AB01087124BB83500104AB01020
:104BB000A7120010A3100010BE144ABE150105ABC9
:104BC000C39015CE15086C02860CE20C04BC5C90F8
:104BD00014CA5C304DEECE5C394BE5CA5C414DEEFB
:104BE000C65C466DEEA65C30C65C0A4BF0A65C0760
:104BF000B40C5C9014DA14014BCABCB0040C9104E0
:104C00004BC18F124B89D600EC4C1F870035000832
:104C1000E40800A400A3000008D70002F04C0DD661
:104C200042B36B494B1A06B6830F7E02000005069D
:104C3000BE446C3D834AD675FF4C3D874A0F7CBF0E
:104C40004A40018E756C65D675FF6C61CA75644CFF
:104C50005C904AA67564BC4C7505AC5FBC4B754C4A
:104C600067834A4C67874A0F7C55B506B6830F7E2B
:104C70000201000406BE44BC007606A9AABF4A4051
:104C800001BC007706A9AA4B1AD642B36C940F7EDA
:104C900000B74C980F7E00B30F74B30F7E00B300C3
:104CA0000F7E02010010924B0006AC890F7E0201BC
:104CB0000018924BBC027FBC7E4B0F7E010F7E0220
:104CC000010020924BBC7F4B0006A56506ACA03DC1
:104CD0000001074B4B1E06ACA90F74B606A995A29E
:104CE0004B60BC004BBF4A0001D642B66CF80F7E49
:104CF00000B30F74B606A99500BD526EC552244D7F
:104D000033BC5CE00252D65C694D1206A9FC0F77F9
:104D10004D3FD65C674D1DA75200204D31D65C66D5
:104D20004D28A75200084D31D65C6A4DBAA75200F3
:104D3000104CFCBF4A0080BF4C6900874E87500F63
:104D40007706A9F606ADAFBC4BEFFFF86E0F800FEC
:104D50007C06ADAADAEFFFF96E804D663100084A95
:104D6000A3F3834A4D6EBC4BEFFFFB6E0F800F7CAD
:104D7000D642B66DA506ADAABC4BEFFFF96EB24B9D
:104D80007F0F800F7C06ADAABD4CEFFFFE6EBD4AC3
:104D90004C8F4C6DA1974C0660344CBD4A50B24AC2
:104DA0007F0F800F7C0F7805AB1AD642B34DBA0F38
:104DB000790F7A0F7B0F77864A00066A8403066AAA
:104DC0008407066A8409066A840B066A840C066AEC
:104DD000840D066A840E066A840F066A8410066AC9
:104DE0008412066A8414066A8416066A841C066A9B
:104DF000841E066A841F066A8425000000000000E5
:104E0000504F50484E04AE1106535052495445AECF
:104E10008FAE1F0944454C535052495445AEC0AE65
:104E20002C08504F534954494F4EAEFFAE36054300
:104E30004F494E43B6B0AE42074D41474E494659E1
:104E4000AF75AE4D064D4F54494F4EAF8DAE58061F
:104E50004C4F43415445AF9DAE64075041545445B7
:104E6000524EAFB1AE710844495354414E4345B61A
:104E7000C5AE7903534159B107AE83055350474539
:104E800054B260B6D20743484152534554B0290644
:104E9000B04206B04806B0890F7E00B306A01E0FD0
:104EA0007E00B306B06CBDB00805D642B350F10F1A
:104EB00079D642FD4EBB06B04F4E9506B09B4EAA2A
:104EC00006B0420F79D642FD4EF60F790F74B60642
:104ED000B05487E48008BFB008C000D4A3AA7A4EBB
:104EE000EF927A6EEFA70800048FE480086EE1D697
:104EF00042B36EC34EFD0F7E00EC06601650F10605
:104F0000B04206B04806B0F40F7E00B3BD00B00852
:104F1000BC4B00D64BFE4F1C954A4F1E944B06AF20
:104F20003306B0F4BC4B01914A06AF33D642B36F9F
:104F30000250F10F80D700C0004F3D874A0F7C0020
:104F400006B0420F79D642EC4F560F7906B0E4DA3C
:104F50007B2076BF4F6C06AFE906B0E10F7E020002
:104F600000FFC5004A76BFC5044A76BF06B0F4BF4D
:104F70004ABFFF56C206B0420F790F74B60F7E02C9
:104F8000010004A24BDF3D0001014B50F106B0428D
:104F900005B56306B09BD642B36F9050F106B042A0
:104FA00006B04806B06CBDB00805D642B36FA0503D
:104FB000F106B04206B04806B089D642B36FB4508D
:104FC000F106B0420F7906AFE906B0F4A90000A9D6
:104FD0000404A102060D6FE1BD4A02C7027FFF4F24
:104FE000E5BF4A7FFF0F8056C286003500070100EB
:104FF000D642FD4DBA06B04FBD01B0089001BC03CA
:10500000028602D642FD501106B04FBD05B00850D1
:105010001706B06C06B0E49005A500048100860573
:10502000A505028105BC050600066A784DBABE4C8E
:1050300040066018BEA80F10350010A810A80F0673
:105040000012D642B74DBA000F79D642FD4DBA0FC5
:105050007906B0E10F7E0201001CBCA3AA4B924B63
:10506000E34A0002A34A0300BD084A0006B0E10F6C
:105070007E02010100964BBD044A0F74B60F7E02FA
:10508000010100924BBC064B000F74B60F7E021E4E
:10509000009FA24B60BCE002084B0006B0E106B0E6
:1050A000BDBC0A4B0F74B606B0BDBC4A0ABDE48055
:1050B000084AC4A3AA7A50BCBC7AA3AA00C64C630F
:1050C0006DBE8654876C0F128E544DEED34A00008D
:1050D00050DAC74A007F6DEE50E0CB4AFF804DEEBC
:1050E000000F74B3D642B34DBA0F790006B0F40F77
:1050F0007C05A01C0F7A0F7BC64C636DF20F778680
:105100004A3500074B4A00D642B74DBABD4C6E0F28
:1051100077BF0C00FF0F71BF4A001CBF4C6500BD7C
:105120004E1CBD500C0F77BD004EBD024EBD04009D
:10513000A1045006B55106B54606B31E71B0BD06B2
:105140004EBD0A50A10A06930A06B551BD0806864F
:105150004C06B39B06B38BC5080A71A606B3348E02
:105160004B517206B4308F4D516FBE4B01517206D8
:10517000B536D64B01519FBD4F10BE4C3CD6B00C3E
:10518000205187910C517DBD100C06B4308F4D51CC
:1051900095BF4D71F406B536910CC50C4F517D8607
:1051A0004C06B38B5157D64CFE71B0874D06B536C1
:1051B000D642B351CA06B31E71C5BE4CFF0F77BDB0
:1051C0004D6E06B536D642B3713906B551C90002E7
:1051D000725706B546D6B000FF71FDBC79B00082AB
:1051E00079BD12E00100A3000003D2790051EA8EDC
:1051F0001271FB06B4ECBEC0005A5052549100BD6F
:105200005EB000BD5EE0045E9500BC62EFFFFF5E35
:10521000A66203D6B05E604DEE06B546955EBC60F4
:10522000B05E915EBE5610BEC0005A60BCC0005A4F
:10523000B05E915E92627254926072109256522CDD
:10524000BC69C00058DA69807254DA69407240BEA5
:105250005608522C05B1CD0F78D56E4C525750F1EF
:10526000D642B74DBA06B55106B54606B31E8F50A5
:105270007317BD064EBD0A50A10A06930A06B55122
:10528000BD0806864C06B39B06B38BC5080A731788
:1052900006B334D64B01529BBD100C06B4308F4D73
:1052A00052A9BF4D71F4BE6451BD014DBC0064A252
:1052B00000030F7E00B30F7A0F7B0F77860CBC0DB7
:1052C000000F7106B551BF4A001CBF4C6500BD4EB2
:1052D0001CBD500CBFB01C6000BCE0021C00A7E06D
:1052E000011C0003BD120106B4ECC600035315BE39
:1052F000C0005A10BC68C000588667BE5408EB67EF
:105300000001E3660001925452FEBCE0031C66916A
:105310001C920052EA0F7CD642B3726B50F10F79A7
:10532000D642B373300F74B6D64C654DBE8F500164
:10533000D4000001D64A23536F9108D6B0082053F9
:10534000459108533BD6B00823534E910800BD0C3D
:10535000089108C5080A7361BC4AB008D64A2353AD
:1053600051BD10089310910806B39B864B538ABD1C
:105370000C08864BCA4A41737B904B910806B39B3D
:10538000D651FF737BBD1008931000CA51FE739A6B
:10539000A14C51910806B39B538B00BC4AB008BD89
:1053A0005408C5540A53ABBE51FE00C64A3B74159F
:1053B000D64A2053C4BE5106D6E001082053C391FB
:1053C0000853B800D64A2B53D3915406B419741518
:1053D000865100D64A2C53DCBE511200D64A2E53B9
:1053E000F3935406B41953EF955406B4197415BECB
:1053F000513C00D64A2D5403915406B4197415BE7D
:10540000510C00D64A3A540CBE513000D64A3B5497
:1054100015BE511E00BE51FF00C5540A742FC506AB
:1054200054742FCAB05430542FC6B054395330017D
:105430008766BD126606B4ECBEC0005A10D6C00026
:1054400058AA544D911206B4588F4D5457A36680F4
:10545000008F665432874D0006B4ECBEC0005A106F
:105460008616BC17C00058A11612BD14129114BDA7
:105470000E0CBEC0005A10BC5DC00058D45DB00E0A
:1054800054D09114910ED6B00E2054A0D6E0010E47
:10549000205497910E548CD6E0010E2354A0910E07
:1054A000C5141654C5C50E1054BFBD1216A3120064
:1054B0000606B51EBEC0005A10BC64C0005800BF2E
:1054C00012000354DCC50E105472BF12000154DCEC
:1054D000BF120003C45DB00E54DC9712A112160671
:1054E000B51E8F4D54E700BD124D5458BD5412BD2A
:1054F0005612E65404E65504B3560F0FB754404015
:10550000B7564040BCC0005A57BCC0005A55BCC03A
:10551000005A56BCC0005A54BEC0005A400006B4DF
:10552000ECBEC0005A10BC4DC00058BEC0005A109E
:10553000BC4EC0005800D502047558350003B002B7
:105540004CA302000300BC69C00058DA69805546CC
:105550000031000458004600066A8415D642B3683C
:10556000FA4B170F79D642EC55900F790F79BF4A55
:10557000000106B05A06B09BBE4A1C8700350002E7
:10558000E78000A780A3000004924A557D05AF96EE
:10559000D642FD559B06B04A05AF93D6428555A726
:1055A000B280C2BF05B5B0D642984DBAB680C240EF
:1055B0000F7905AF96000F790F74B60006B5B6D611
:1055C0004C654DBE0006B5B6D64C656DBE000F12DB
:1055D000D654036DEE0006B64DD642B34DBA000662
:1055E000B5D6CF4A00186DEE934ABC027FBC7E4B05
:1055F00006B5D6CF4A00206DEE934ABC7F4B000F14
:1056000079CA42806DBA06B61AD64C654DBEBF4AFD
:10561000001CBD4E1CBD500C56230F7A0F7B0F771C
:10562000000F800F7C00BC007DBC017DA60160BC2A
:10563000E0001201911200BC00E0004EA200609157
:105640004E0008E000FB0008E0009EFB0006B5C528
:1056500006B5CE00864A3500074B4A00066A84220A
:10566000CB000100566BA28F80C110BF5603C0064D
:1056700000100ABC0B7CE650048E50565CD60B2002
:10568000765C00D642B7768DD642B34DBA0F790F0D
:1056900074B6D64C6556A5BD044EBD0650BF1099D4
:1056A0004A06AC89000F7E00B3000F7E00B34C9811
:1056B00006AF40D642B34B1A0F7906AF5656B30623
:1056C000B0F40F7C0006AFC1D642B34B1A06AFC48C
:1056D00056C8B71507474D4F54494F4EB6DE06B072
:1056E0004206B048BE5402BD56E4800806B0F4BC81
:1056F0004B56C64B7F56FB824B834A06B621D65487
:105700000177070F7E00B3C05756925456ECD6422D
:10571000B376E14B1AB78407524D4F54494F4EB7F9
:105720002106B0420F79D642EC573B0F7E00ECBF0A
:1057300000001CBD4A0006B05A574ABF000001D6FF
:1057400042FD4DBA06B5C506B054BD54E48008BE4E
:1057500056028E547766D654807772C6547F77642B
:10576000825457668054C0555492565752BDE480B7
:10577000085493005733D642B377244B1A0F7E0256
:105780001E009F00B7D807494E5645525345B79063
:1057900006B0420F79D642EC57AC0F7E00ECBF4A00
:1057A000001EE34A0003BF5401C857BA0F74B6067F
:1057B000B77DE34A0003BF54000485E3004AA34ACF
:1057C0000002935457BAD642B377934B1A06B5B634
:1057D00006B77DE34A000300B8170853574150430A
:1057E000484152B7E506B04206B7CDBD0E4AD64293
:1057F000B34DBA06B7CDBD104A3500084AE3000ED6
:10580000350008E3000EE30010350008E300104AFD
:10581000D642B377E84B1AB84B074455504348413A
:1058200052B82306B04206B7CDBD0E4AD642B34D9C
:10583000BA06B7CD350008E3004AE3000ED642B3FE
:1058400078264B1A0F7E0200001000B8BA09535791
:105850004150434F4C4F52B8590F7E00B7D642FDCE
:10586000588D06B04FBC0EE0034ABD104AD642FD2B
:105870004DBA06B5B606B054BCE00310E0034ABC0E
:10588000E0034A0ED642B34B1A0F79585D0F7E01E2
:1058900006B844A34A080FBD0E4A0F74B606B844B2
:1058A000A34A080FBC00B04ABCB04AB00EBCB00E50
:1058B00000D642B34B1A0F79588DB916084455508B
:1058C000434F4C4F52B8C70F7E00B7D642FD58F138
:1058D00006B04FBC0EE0034AD642FD4DBA06B5B63F
:1058E00006B054BCE0034A0ED642B34B1A0F7958A7
:1058F000CB0F7E0106B844A34A080FBC00B04A0F84
:1059000074B606B844A34A080FBCB04A00D642B3E6
:105910004B1A0F7958F1BA0D054D4F564553B92022
:1059200006B04206B5BCBD10B04E06B5D68F4A6D66
:10593000EEBD0C4A06B5B6D610245948C80D5079AC
:105940004E860CBC0D50594E06B5CEBD4E4ABD0418
:105950004ED611245966CB0C01006DEE0F7106B5C1
:10596000FFBD4A1C596906B64DBD064AD6102459DA
:1059700074BE1056D61124597CBE1156D6105659F5
:10598000A9D61156598E340CE00006E00004D61159
:1059900052599C340CCF7D0006E00004D6114759C3
:1059A000A92C0C000006E00004D6105259D9D611DB
:1059B0005659BC340CE00006CF7D0004D611525974
:1059C000CB340CCF7D0006CF7D0004D6114759D9CA
:1059D0002C0C000006CF7D0004D610475A06D611C5
:1059E0005659EB320CE00006000004D6115259F96A
:1059F000320CCF7D0006000004D611475A062A0C4F
:105A0000000006000004D642B379234B1ABAEF0314
:105A1000484558BA1506B04206B5B6D64C657A75F3
:105A200006B5CEBD564ABF0C00040F71BD121CBC9A
:105A30000056E6000406BA63BC0056E20004E60025
:105A40000406BA63BC0057E6000406BA63BC0057FC
:105A5000E20004E6000406BA63D642B34DBA06B5C6
:105A6000FF5AB8CA000A5A6BA20007A20030BCB0A5
:105A700012009112008756BD124ECB5000057A8C51
:105A80008A515AAA5AA45A9B5A955A8C06BABFE20E
:105A90000004A0560006BABFA0560006BABFE20036
:105AA00004A0570006BABFA057000F7906B61A0621
:105AB000B654BD4A5606B621D642B37A184B1ABC24
:105AC00000B012CA00676DEACA00615AD0A6002071
:105AD000CA00476DEACA00415ADFA600375AECCA2D
